{
  "_format": "hh-sol-artifact-1",
  "contractName": "TrustEstate",
  "sourceName": "contracts/TrustEstate.sol",
  "abi": [
    {
      "inputs": [
        {
          "internalType": "string",
          "name": "name_",
          "type": "string"
        },
        {
          "internalType": "string",
          "name": "symbol_",
          "type": "string"
        },
        {
          "internalType": "address",
          "name": "madatoryPartitcipant",
          "type": "address"
        },
        {
          "internalType": "address",
          "name": "didRegistryAddress",
          "type": "address"
        }
      ],
      "stateMutability": "nonpayable",
      "type": "constructor"
    },
    {
      "anonymous": false,
      "inputs": [
        {
          "indexed": false,
          "internalType": "uint256",
          "name": "plotId",
          "type": "uint256"
        },
        {
          "indexed": false,
          "internalType": "uint256",
          "name": "proposalId",
          "type": "uint256"
        },
        {
          "indexed": false,
          "internalType": "address",
          "name": "approver",
          "type": "address"
        }
      ],
      "name": "ProposalApproved",
      "type": "event"
    },
    {
      "anonymous": false,
      "inputs": [
        {
          "indexed": false,
          "internalType": "uint256",
          "name": "plotId",
          "type": "uint256"
        },
        {
          "indexed": false,
          "internalType": "uint256",
          "name": "proposalId",
          "type": "uint256"
        }
      ],
      "name": "ProposalCreated",
      "type": "event"
    },
    {
      "anonymous": false,
      "inputs": [
        {
          "indexed": false,
          "internalType": "uint256",
          "name": "plotId",
          "type": "uint256"
        },
        {
          "indexed": false,
          "internalType": "uint256",
          "name": "proposalId",
          "type": "uint256"
        }
      ],
      "name": "ProposalExecuted",
      "type": "event"
    },
    {
      "anonymous": false,
      "inputs": [
        {
          "indexed": false,
          "internalType": "uint256",
          "name": "plotId",
          "type": "uint256"
        },
        {
          "components": [
            {
              "internalType": "address",
              "name": "owner",
              "type": "address"
            },
            {
              "internalType": "uint256",
              "name": "share",
              "type": "uint256"
            }
          ],
          "indexed": false,
          "internalType": "struct TrustEstate.Ownership[]",
          "name": "from",
          "type": "tuple[]"
        },
        {
          "components": [
            {
              "internalType": "address",
              "name": "owner",
              "type": "address"
            },
            {
              "internalType": "uint256",
              "name": "share",
              "type": "uint256"
            }
          ],
          "indexed": false,
          "internalType": "struct TrustEstate.Ownership[]",
          "name": "to",
          "type": "tuple[]"
        }
      ],
      "name": "Transfer",
      "type": "event"
    },
    {
      "inputs": [
        {
          "internalType": "uint256",
          "name": "tokenId",
          "type": "uint256"
        }
      ],
      "name": "_getOwners",
      "outputs": [
        {
          "internalType": "address[]",
          "name": "",
          "type": "address[]"
        }
      ],
      "stateMutability": "view",
      "type": "function"
    },
    {
      "inputs": [
        {
          "internalType": "uint256",
          "name": "proposalId",
          "type": "uint256"
        },
        {
          "internalType": "address",
          "name": "account",
          "type": "address"
        }
      ],
      "name": "_hasToApprove",
      "outputs": [
        {
          "internalType": "bool",
          "name": "",
          "type": "bool"
        }
      ],
      "stateMutability": "view",
      "type": "function"
    },
    {
      "inputs": [
        {
          "internalType": "uint256",
          "name": "tokenId",
          "type": "uint256"
        },
        {
          "internalType": "address",
          "name": "account",
          "type": "address"
        }
      ],
      "name": "_isOwner",
      "outputs": [
        {
          "internalType": "bool",
          "name": "",
          "type": "bool"
        }
      ],
      "stateMutability": "view",
      "type": "function"
    },
    {
      "inputs": [
        {
          "internalType": "address",
          "name": "account",
          "type": "address"
        },
        {
          "components": [
            {
              "internalType": "address",
              "name": "owner",
              "type": "address"
            },
            {
              "internalType": "uint256",
              "name": "share",
              "type": "uint256"
            }
          ],
          "internalType": "struct TrustEstate.Ownership[]",
          "name": "owners",
          "type": "tuple[]"
        }
      ],
      "name": "_isOwnerInArray",
      "outputs": [
        {
          "internalType": "bool",
          "name": "",
          "type": "bool"
        }
      ],
      "stateMutability": "pure",
      "type": "function"
    },
    {
      "inputs": [
        {
          "internalType": "uint256",
          "name": "proposalId",
          "type": "uint256"
        }
      ],
      "name": "approveProposal",
      "outputs": [],
      "stateMutability": "nonpayable",
      "type": "function"
    },
    {
      "inputs": [
        {
          "internalType": "uint256",
          "name": "plotId1",
          "type": "uint256"
        },
        {
          "internalType": "uint256",
          "name": "plotId2",
          "type": "uint256"
        },
        {
          "components": [
            {
              "internalType": "string",
              "name": "ipfsHash",
              "type": "string"
            },
            {
              "internalType": "bool",
              "name": "allowIndividualTransfer",
              "type": "bool"
            }
          ],
          "internalType": "struct TrustEstate.PlotDetails",
          "name": "merge",
          "type": "tuple"
        },
        {
          "components": [
            {
              "internalType": "address",
              "name": "owner",
              "type": "address"
            },
            {
              "internalType": "uint256",
              "name": "share",
              "type": "uint256"
            }
          ],
          "internalType": "struct TrustEstate.Ownership[]",
          "name": "owners",
          "type": "tuple[]"
        }
      ],
      "name": "createMergeProposal",
      "outputs": [],
      "stateMutability": "nonpayable",
      "type": "function"
    },
    {
      "inputs": [
        {
          "internalType": "uint256",
          "name": "plotId",
          "type": "uint256"
        },
        {
          "components": [
            {
              "internalType": "string",
              "name": "ipfsHash",
              "type": "string"
            },
            {
              "internalType": "bool",
              "name": "allowIndividualTransfer",
              "type": "bool"
            }
          ],
          "internalType": "struct TrustEstate.PlotDetails",
          "name": "split1",
          "type": "tuple"
        },
        {
          "components": [
            {
              "internalType": "string",
              "name": "ipfsHash",
              "type": "string"
            },
            {
              "internalType": "bool",
              "name": "allowIndividualTransfer",
              "type": "bool"
            }
          ],
          "internalType": "struct TrustEstate.PlotDetails",
          "name": "split2",
          "type": "tuple"
        },
        {
          "components": [
            {
              "internalType": "address",
              "name": "owner",
              "type": "address"
            },
            {
              "internalType": "uint256",
              "name": "share",
              "type": "uint256"
            }
          ],
          "internalType": "struct TrustEstate.Ownership[]",
          "name": "owners1",
          "type": "tuple[]"
        },
        {
          "components": [
            {
              "internalType": "address",
              "name": "owner",
              "type": "address"
            },
            {
              "internalType": "uint256",
              "name": "share",
              "type": "uint256"
            }
          ],
          "internalType": "struct TrustEstate.Ownership[]",
          "name": "owners2",
          "type": "tuple[]"
        }
      ],
      "name": "createSplitProposal",
      "outputs": [],
      "stateMutability": "nonpayable",
      "type": "function"
    },
    {
      "inputs": [
        {
          "internalType": "uint256",
          "name": "plotId",
          "type": "uint256"
        },
        {
          "components": [
            {
              "internalType": "address",
              "name": "owner",
              "type": "address"
            },
            {
              "internalType": "uint256",
              "name": "share",
              "type": "uint256"
            }
          ],
          "internalType": "struct TrustEstate.Ownership[]",
          "name": "owners",
          "type": "tuple[]"
        }
      ],
      "name": "createTransferProposal",
      "outputs": [],
      "stateMutability": "nonpayable",
      "type": "function"
    },
    {
      "inputs": [],
      "name": "didRegistry",
      "outputs": [
        {
          "internalType": "contract DIDRegistry",
          "name": "",
          "type": "address"
        }
      ],
      "stateMutability": "view",
      "type": "function"
    },
    {
      "inputs": [
        {
          "internalType": "address",
          "name": "owner",
          "type": "address"
        }
      ],
      "name": "dids",
      "outputs": [
        {
          "internalType": "string",
          "name": "did",
          "type": "string"
        }
      ],
      "stateMutability": "view",
      "type": "function"
    },
    {
      "inputs": [
        {
          "internalType": "uint256",
          "name": "proposalId",
          "type": "uint256"
        }
      ],
      "name": "executeProposal",
      "outputs": [],
      "stateMutability": "nonpayable",
      "type": "function"
    },
    {
      "inputs": [
        {
          "internalType": "uint256",
          "name": "tokenId",
          "type": "uint256"
        }
      ],
      "name": "getOwnership",
      "outputs": [
        {
          "components": [
            {
              "internalType": "address",
              "name": "owner",
              "type": "address"
            },
            {
              "internalType": "uint256",
              "name": "share",
              "type": "uint256"
            }
          ],
          "internalType": "struct TrustEstate.Ownership[]",
          "name": "",
          "type": "tuple[]"
        }
      ],
      "stateMutability": "view",
      "type": "function"
    },
    {
      "inputs": [
        {
          "internalType": "uint256",
          "name": "id",
          "type": "uint256"
        }
      ],
      "name": "getPlot",
      "outputs": [
        {
          "components": [
            {
              "internalType": "uint256",
              "name": "id",
              "type": "uint256"
            },
            {
              "internalType": "string",
              "name": "ipfsHash",
              "type": "string"
            },
            {
              "internalType": "bool",
              "name": "allowIndividualTransfer",
              "type": "bool"
            },
            {
              "internalType": "bool",
              "name": "exists",
              "type": "bool"
            }
          ],
          "internalType": "struct TrustEstate.Plot",
          "name": "",
          "type": "tuple"
        }
      ],
      "stateMutability": "view",
      "type": "function"
    },
    {
      "inputs": [],
      "name": "getPlotCount",
      "outputs": [
        {
          "internalType": "uint256",
          "name": "",
          "type": "uint256"
        }
      ],
      "stateMutability": "view",
      "type": "function"
    },
    {
      "inputs": [],
      "name": "getProposals",
      "outputs": [
        {
          "components": [
            {
              "internalType": "uint256",
              "name": "proposalId",
              "type": "uint256"
            },
            {
              "internalType": "uint256",
              "name": "plotId",
              "type": "uint256"
            },
            {
              "internalType": "address[]",
              "name": "hasToApprove",
              "type": "address[]"
            },
            {
              "internalType": "address[]",
              "name": "approvers",
              "type": "address[]"
            },
            {
              "internalType": "enum TrustEstate.ProposalType",
              "name": "proposalType",
              "type": "uint8"
            },
            {
              "internalType": "bool",
              "name": "executed",
              "type": "bool"
            },
            {
              "internalType": "bytes",
              "name": "proposalData",
              "type": "bytes"
            }
          ],
          "internalType": "struct TrustEstate.ProposalView[]",
          "name": "",
          "type": "tuple[]"
        }
      ],
      "stateMutability": "view",
      "type": "function"
    },
    {
      "inputs": [
        {
          "components": [
            {
              "internalType": "address",
              "name": "owner",
              "type": "address"
            },
            {
              "internalType": "uint256",
              "name": "share",
              "type": "uint256"
            }
          ],
          "internalType": "struct TrustEstate.Ownership[]",
          "name": "owners",
          "type": "tuple[]"
        },
        {
          "internalType": "string",
          "name": "ipfsHash",
          "type": "string"
        },
        {
          "internalType": "bool",
          "name": "allowIndividualTransfer",
          "type": "bool"
        }
      ],
      "name": "mintPlot",
      "outputs": [],
      "stateMutability": "nonpayable",
      "type": "function"
    },
    {
      "inputs": [
        {
          "internalType": "uint256",
          "name": "proposalId",
          "type": "uint256"
        }
      ],
      "name": "proposals",
      "outputs": [
        {
          "internalType": "uint256",
          "name": "plotId",
          "type": "uint256"
        },
        {
          "internalType": "enum TrustEstate.ProposalType",
          "name": "proposalType",
          "type": "uint8"
        },
        {
          "internalType": "bool",
          "name": "executed",
          "type": "bool"
        },
        {
          "internalType": "bytes",
          "name": "proposalData",
          "type": "bytes"
        }
      ],
      "stateMutability": "view",
      "type": "function"
    },
    {
      "inputs": [
        {
          "internalType": "string",
          "name": "did",
          "type": "string"
        }
      ],
      "name": "register",
      "outputs": [],
      "stateMutability": "nonpayable",
      "type": "function"
    },
    {
      "inputs": [
        {
          "internalType": "address",
          "name": "to",
          "type": "address"
        },
        {
          "internalType": "uint256",
          "name": "plotId",
          "type": "uint256"
        },
        {
          "internalType": "uint256",
          "name": "amount",
          "type": "uint256"
        }
      ],
      "name": "transferOwnershipShare",
      "outputs": [],
      "stateMutability": "nonpayable",
      "type": "function"
    }
  ],
  "bytecode": "0x608060405234801561001057600080fd5b50604051616209380380616209833981810160405281019061003291906102af565b8360019081610041919061056f565b508260029081610051919061056f565b5081600360006101000a81548173ffffffffffffffffffffffffffffffffffffffff021916908373ffffffffffffffffffffffffffffffffffffffff160217905550806000806101000a81548173ffffffffffffffffffffffffffffffffffffffff021916908373ffffffffffffffffffffffffffffffffffffffff16021790555050505050610641565b6000604051905090565b600080fd5b600080fd5b600080fd5b600080fd5b6000601f19601f8301169050919050565b7f4e487b7100000000000000000000000000000000000000000000000000000000600052604160045260246000fd5b610143826100fa565b810181811067ffffffffffffffff821117156101625761016161010b565b5b80604052505050565b60006101756100dc565b9050610181828261013a565b919050565b600067ffffffffffffffff8211156101a1576101a061010b565b5b6101aa826100fa565b9050602081019050919050565b60005b838110156101d55780820151818401526020810190506101ba565b60008484015250505050565b60006101f46101ef84610186565b61016b565b9050828152602081018484840111156102105761020f6100f5565b5b61021b8482856101b7565b509392505050565b600082601f830112610238576102376100f0565b5b81516102488482602086016101e1565b91505092915050565b600073ffffffffffffffffffffffffffffffffffffffff82169050919050565b600061027c82610251565b9050919050565b61028c81610271565b811461029757600080fd5b50565b6000815190506102a981610283565b92915050565b600080600080608085870312156102c9576102c86100e6565b5b600085015167ffffffffffffffff8111156102e7576102e66100eb565b5b6102f387828801610223565b945050602085015167ffffffffffffffff811115610314576103136100eb565b5b61032087828801610223565b93505060406103318782880161029a565b92505060606103428782880161029a565b91505092959194509250565b600081519050919050565b7f4e487b7100000000000000000000000000000000000000000000000000000000600052602260045260246000fd5b600060028204905060018216806103a057607f821691505b6020821081036103b3576103b2610359565b5b50919050565b60008190508160005260206000209050919050565b60006020601f8301049050919050565b600082821b905092915050565b60006008830261041b7fffffffffffffffffffffffffffffffffffffffffffffffffffffffffffffffff826103de565b61042586836103de565b95508019841693508086168417925050509392505050565b6000819050919050565b6000819050919050565b600061046c6104676104628461043d565b610447565b61043d565b9050919050565b6000819050919050565b61048683610451565b61049a61049282610473565b8484546103eb565b825550505050565b600090565b6104af6104a2565b6104ba81848461047d565b505050565b5b818110156104de576104d36000826104a7565b6001810190506104c0565b5050565b601f821115610523576104f4816103b9565b6104fd846103ce565b8101602085101561050c578190505b610520610518856103ce565b8301826104bf565b50505b505050565b600082821c905092915050565b600061054660001984600802610528565b1980831691505092915050565b600061055f8383610535565b9150826002028217905092915050565b6105788261034e565b67ffffffffffffffff8111156105915761059061010b565b5b61059b8254610388565b6105a68282856104e2565b600060209050601f8311600181146105d957600084156105c7578287015190505b6105d18582610553565b865550610639565b601f1984166105e7866103b9565b60005b8281101561060f578489015182556001820191506020850194506020810190506105ea565b8683101561062c5784890151610628601f891682610535565b8355505b6001600288020188555050505b505050505050565b615bb9806106506000396000f3fe608060405234801561001057600080fd5b50600436106101215760003560e01c8063704044dc116100ad5780639a515280116100715780639a5152801461032f578063a384feb61461035f578063c81d3d3d1461037b578063cfdd4fbd14610397578063f2c298be146103c757610121565b8063704044dc1461027b578063763d1b00146102ab5780637844f55a146102db5780639244fb81146102f757806398951b561461031357610121565b80633593f81b116100f45780633593f81b146101c3578063448b3834146101f357806344fb29b71461020f578063577f9fb11461023f57806362564c481461025d57610121565b8063013cf08b146101265780630d61b5191461015957806322c6e6e214610175578063355a171314610193575b600080fd5b610140600480360381019061013b91906133eb565b6103e3565b6040516101509493929190613549565b60405180910390f35b610173600480360381019061016e91906133eb565b6104b5565b005b61017d6109c3565b60405161018a9190613595565b60405180910390f35b6101ad60048036038101906101a8919061360e565b6109cd565b6040516101ba919061364e565b60405180910390f35b6101dd60048036038101906101d89190613669565b610a7b565b6040516101ea91906136eb565b60405180910390f35b61020d6004803603810190610208919061370d565b610b1b565b005b6102296004803603810190610224919061360e565b610f08565b604051610236919061364e565b60405180910390f35b610247610fe4565b60405161025491906137bf565b60405180910390f35b610265611008565b6040516102729190613a7b565b60405180910390f35b610295600480360381019061029091906133eb565b6112c5565b6040516102a29190613b7b565b60405180910390f35b6102c560048036038101906102c09190613d3f565b611397565b6040516102d2919061364e565b60405180910390f35b6102f560048036038101906102f09190613e78565b61141c565b005b610311600480360381019061030c9190613f0d565b611579565b005b61032d600480360381019061032891906133eb565b61161d565b005b610349600480360381019061034491906133eb565b611972565b6040516103569190613fd8565b60405180910390f35b6103796004803603810190610374919061411b565b611a9e565b005b610395600480360381019061039091906141ba565b611d06565b005b6103b160048036038101906103ac91906133eb565b611dd6565b6040516103be9190614352565b60405180910390f35b6103e160048036038101906103dc9190614374565b611ed5565b005b60076020528060005260406000206000915090508060000154908060040160009054906101000a900460ff16908060040160019054906101000a900460ff1690806005018054610432906143f0565b80601f016020809104026020016040519081016040528092919081815260200182805461045e906143f0565b80156104ab5780601f10610480576101008083540402835291602001916104ab565b820191906000526020600020905b81548152906001019060200180831161048e57829003601f168201915b5050505050905084565b60006007600083815260200190815260200160002090508060040160019054906101000a900460ff161561051e576040517f08c379a00000000000000000000000000000000000000000000000000000000081526004016105159061446d565b60405180910390fd5b60005b816001018054905081101561064e57610602826002018054806020026020016040519081016040528092919081815260200182805480156105b757602002820191906000526020600020905b8160009054906101000a900473ffffffffffffffffffffffffffffffffffffffff1673ffffffffffffffffffffffffffffffffffffffff168152602001906001019080831161056d575b50505050508360010183815481106105d2576105d161448d565b5b9060005260206000200160009054906101000a900473ffffffffffffffffffffffffffffffffffffffff16611f28565b610641576040517f08c379a000000000000000000000000000000000000000000000000000000000815260040161063890614508565b60405180910390fd5b8080600101915050610521565b506000600281111561066357610662613427565b5b8160040160009054906101000a900460ff16600281111561068757610686613427565b5b0361074457600081600501805461069d906143f0565b80601f01602080910402602001604051908101604052809291908181526020018280546106c9906143f0565b80156107165780601f106106eb57610100808354040283529160200191610716565b820191906000526020600020905b8154815290600101906020018083116106f957829003601f168201915b505050505080602001905181019061072e9190614812565b905061073e826000015482611fa9565b50610965565b6001600281111561075857610757613427565b5b8160040160009054906101000a900460ff16600281111561077c5761077b613427565b5b03610834576000816005018054610792906143f0565b80601f01602080910402602001604051908101604052809291908181526020018280546107be906143f0565b801561080b5780601f106107e05761010080835404028352916020019161080b565b820191906000526020600020905b8154815290600101906020018083116107ee57829003601f168201915b5050505050806020019051810190610823919061490b565b905061082e81611fda565b50610964565b60028081111561084757610846613427565b5b8160040160009054906101000a900460ff16600281111561086b5761086a613427565b5b03610928576000816005018054610881906143f0565b80601f01602080910402602001604051908101604052809291908181526020018280546108ad906143f0565b80156108fa5780601f106108cf576101008083540402835291602001916108fa565b820191906000526020600020905b8154815290600101906020018083116108dd57829003601f168201915b505050505080602001905181019061091291906149ac565b9050610922826000015482612009565b50610963565b6040517f08c379a000000000000000000000000000000000000000000000000000000000815260040161095a90614a41565b60405180910390fd5b5b5b60018160040160016101000a81548160ff0219169083151502179055507ff758fc91e01b00ea6b4a6138756f7f28e021f9bf21db6dbf8c36c88eb737257a8160000154836040516109b7929190614a61565b60405180910390a15050565b6000600654905090565b6000610a7360076000858152602001908152602001600020600101805480602002602001604051908101604052809291908181526020018280548015610a6857602002820191906000526020600020905b8160009054906101000a900473ffffffffffffffffffffffffffffffffffffffff1673ffffffffffffffffffffffffffffffffffffffff1681526020019060010190808311610a1e575b505050505083611f28565b905092915050565b60096020528060005260406000206000915090508054610a9a906143f0565b80601f0160208091040260200160405190810160405280929190818152602001828054610ac6906143f0565b8015610b135780601f10610ae857610100808354040283529160200191610b13565b820191906000526020600020905b815481529060010190602001808311610af657829003601f168201915b505050505081565b6005600083815260200190815260200160002060020160019054906101000a900460ff16610b7e576040517f08c379a0000000000000000000000000000000000000000000000000000000008152600401610b7590614ad6565b60405180910390fd5b610b888233610f08565b610bc7576040517f08c379a0000000000000000000000000000000000000000000000000000000008152600401610bbe90614b42565b60405180910390fd5b6000610bd383336120f8565b9050610c156040518060400160405280601381526020017f73686172654f6643757272656e744f776e6572000000000000000000000000008152508284612265565b81811015610c58576040517f08c379a0000000000000000000000000000000000000000000000000000000008152600401610c4f90614bae565b60405180910390fd5b6005600084815260200190815260200160002060020160009054906101000a900460ff16610cbb576040517f08c379a0000000000000000000000000000000000000000000000000000000008152600401610cb290614c40565b60405180910390fd5b6000805b6004600086815260200190815260200160002080549050811015610d77573373ffffffffffffffffffffffffffffffffffffffff16600460008781526020019081526020016000208281548110610d1957610d1861448d565b5b906000526020600020906002020160000160009054906101000a900473ffffffffffffffffffffffffffffffffffffffff1673ffffffffffffffffffffffffffffffffffffffff1603610d6a578091505b8080600101915050610cbf565b50828203610df95784600460008681526020019081526020016000208281548110610da557610da461448d565b5b906000526020600020906002020160000160006101000a81548173ffffffffffffffffffffffffffffffffffffffff021916908373ffffffffffffffffffffffffffffffffffffffff160217905550610f01565b6004600085815260200190815260200160002060405180604001604052808773ffffffffffffffffffffffffffffffffffffffff16815260200185815250908060018154018082558091505060019003906000526020600020906002020160009091909190915060008201518160000160006101000a81548173ffffffffffffffffffffffffffffffffffffffff021916908373ffffffffffffffffffffffffffffffffffffffff16021790555060208201518160010155505082600460008681526020019081526020016000208281548110610ed957610ed861448d565b5b90600052602060002090600202016001016000828254610ef99190614c8f565b925050819055505b5050505050565b6000610fdc8260046000868152602001908152602001600020805480602002602001604051908101604052809291908181526020016000905b82821015610fd357838290600052602060002090600202016040518060400160405290816000820160009054906101000a900473ffffffffffffffffffffffffffffffffffffffff1673ffffffffffffffffffffffffffffffffffffffff1673ffffffffffffffffffffffffffffffffffffffff16815260200160018201548152505081526020019060010190610f41565b50505050611397565b905092915050565b60008054906101000a900473ffffffffffffffffffffffffffffffffffffffff1681565b6060600060085467ffffffffffffffff81111561102857611027613ba2565b5b60405190808252806020026020018201604052801561106157816020015b61104e61317d565b8152602001906001900390816110465790505b50905060005b6008548110156112bd5760006007600083815260200190815260200160002090506040518060e00160405280838152602001826000015481526020018260010180548060200260200160405190810160405280929190818152602001828054801561112757602002820191906000526020600020905b8160009054906101000a900473ffffffffffffffffffffffffffffffffffffffff1673ffffffffffffffffffffffffffffffffffffffff16815260200190600101908083116110dd575b50505050508152602001826002018054806020026020016040519081016040528092919081815260200182805480156111b557602002820191906000526020600020905b8160009054906101000a900473ffffffffffffffffffffffffffffffffffffffff1673ffffffffffffffffffffffffffffffffffffffff168152602001906001019080831161116b575b505050505081526020018260040160009054906101000a900460ff1660028111156111e3576111e2613427565b5b81526020018260040160019054906101000a900460ff1615158152602001826005018054611210906143f0565b80601f016020809104026020016040519081016040528092919081815260200182805461123c906143f0565b80156112895780601f1061125e57610100808354040283529160200191611289565b820191906000526020600020905b81548152906001019060200180831161126c57829003601f168201915b50505050508152508383815181106112a4576112a361448d565b5b6020026020010181905250508080600101915050611067565b508091505090565b606060046000838152602001908152602001600020805480602002602001604051908101604052809291908181526020016000905b8282101561138c57838290600052602060002090600202016040518060400160405290816000820160009054906101000a900473ffffffffffffffffffffffffffffffffffffffff1673ffffffffffffffffffffffffffffffffffffffff1673ffffffffffffffffffffffffffffffffffffffff168152602001600182015481525050815260200190600101906112fa565b505050509050919050565b600080600090505b8251811015611410578373ffffffffffffffffffffffffffffffffffffffff168382815181106113d2576113d161448d565b5b60200260200101516000015173ffffffffffffffffffffffffffffffffffffffff1603611403576001915050611416565b808060010191505061139f565b50600090505b92915050565b600360009054906101000a900473ffffffffffffffffffffffffffffffffffffffff1673ffffffffffffffffffffffffffffffffffffffff163373ffffffffffffffffffffffffffffffffffffffff16146114ac576040517f08c379a00000000000000000000000000000000000000000000000000000000081526004016114a390614d35565b60405180910390fd5b6114b46131ce565b83838080601f016020809104026020016040519081016040528093929190818152602001838380828437600081840152601f19601f82011690508083019250505050505050816000018190525081816020019015159081151581525050611571818787808060200260200160405190810160405280939291908181526020016000905b82821015611567578484839050604002018036038101906115589190614d55565b81526020019060010190611537565b5050505050612304565b505050505050565b6115838233610f08565b6115c2576040517f08c379a00000000000000000000000000000000000000000000000000000000081526004016115b990614b42565b60405180910390fd5b6115cb816125ab565b600060405180602001604052808381525090506000816040516020016115f19190614e1b565b604051602081830303815290604052905061161784600261161187611972565b84612b67565b50505050565b60006007600083815260200190815260200160002090508060040160019054906101000a900460ff1615611686576040517f08c379a000000000000000000000000000000000000000000000000000000000815260040161167d9061446d565b60405180910390fd5b61169082336109cd565b6116cf576040517f08c379a00000000000000000000000000000000000000000000000000000000081526004016116c690614e89565b60405180910390fd5b8060030160003373ffffffffffffffffffffffffffffffffffffffff1673ffffffffffffffffffffffffffffffffffffffff16815260200190815260200160002060009054906101000a900460ff161561175e576040517f08c379a000000000000000000000000000000000000000000000000000000000815260040161175590614ef5565b60405180910390fd5b60018160030160003373ffffffffffffffffffffffffffffffffffffffff1673ffffffffffffffffffffffffffffffffffffffff16815260200190815260200160002060006101000a81548160ff02191690831515021790555080600201339080600181540180825580915050600190039060005260206000200160009091909190916101000a81548173ffffffffffffffffffffffffffffffffffffffff021916908373ffffffffffffffffffffffffffffffffffffffff1602179055507f81413a74258250f4b52e0b85dc8747bbb035882ac6d054f4b52cd32a6850ea2d8160000154833360405161185493929190614f24565b60405180910390a160006001905060005b826001018054905081101561195c57611946836002018054806020026020016040519081016040528092919081815260200182805480156118fb57602002820191906000526020600020905b8160009054906101000a900473ffffffffffffffffffffffffffffffffffffffff1673ffffffffffffffffffffffffffffffffffffffff16815260200190600101908083116118b1575b50505050508460010183815481106119165761191561448d565b5b9060005260206000200160009054906101000a900473ffffffffffffffffffffffffffffffffffffffff16611f28565b61194f57600091505b8080600101915050611865565b50801561196d5761196c836104b5565b5b505050565b60606000600460008481526020019081526020016000208054905067ffffffffffffffff8111156119a6576119a5613ba2565b5b6040519080825280602002602001820160405280156119d45781602001602082028036833780820191505090505b50905060005b8151811015611a9457600460008581526020019081526020016000208181548110611a0857611a0761448d565b5b906000526020600020906002020160000160009054906101000a900473ffffffffffffffffffffffffffffffffffffffff16828281518110611a4d57611a4c61448d565b5b602002602001019073ffffffffffffffffffffffffffffffffffffffff16908173ffffffffffffffffffffffffffffffffffffffff168152505080806001019150506119da565b5080915050919050565b611aa88433610f08565b80611ab95750611ab88333610f08565b5b611af8576040517f08c379a0000000000000000000000000000000000000000000000000000000008152600401611aef90614b42565b60405180910390fd5b611b01816125ab565b60006040518060800160405280848152602001838152602001868152602001858152509050600081604051602001611b399190615002565b60405160208183030381529060405290506000611cee611ce9600460008a8152602001908152602001600020805480602002602001604051908101604052809291908181526020016000905b82821015611c1757838290600052602060002090600202016040518060400160405290816000820160009054906101000a900473ffffffffffffffffffffffffffffffffffffffff1673ffffffffffffffffffffffffffffffffffffffff1673ffffffffffffffffffffffffffffffffffffffff16815260200160018201548152505081526020019060010190611b85565b50505050600460008a8152602001908152602001600020805480602002602001604051908101604052809291908181526020016000905b82821015611ce057838290600052602060002090600202016040518060400160405290816000820160009054906101000a900473ffffffffffffffffffffffffffffffffffffffff1673ffffffffffffffffffffffffffffffffffffffff1673ffffffffffffffffffffffffffffffffffffffff16815260200160018201548152505081526020019060010190611c4e565b50505050612ca0565b612ea3565b9050611cfd8760018385612b67565b50505050505050565b611d108533610f08565b611d4f576040517f08c379a0000000000000000000000000000000000000000000000000000000008152600401611d4690614b42565b60405180910390fd5b611d58826125ab565b611d61816125ab565b60006040518060800160405280868152602001858152602001848152602001838152509050600081604051602001611d99919061509c565b60405160208183030381529060405290506000611dbd611db889611972565b612ea3565b9050611dcc8860008385612b67565b5050505050505050565b611dde6131ea565b6005600083815260200190815260200160002060405180608001604052908160008201548152602001600182018054611e16906143f0565b80601f0160208091040260200160405190810160405280929190818152602001828054611e42906143f0565b8015611e8f5780601f10611e6457610100808354040283529160200191611e8f565b820191906000526020600020905b815481529060010190602001808311611e7257829003601f168201915b505050505081526020016002820160009054906101000a900460ff161515151581526020016002820160019054906101000a900460ff1615151515815250509050919050565b8181600960003373ffffffffffffffffffffffffffffffffffffffff1673ffffffffffffffffffffffffffffffffffffffff1681526020019081526020016000209182611f2392919061526b565b505050565b600080600090505b8351811015611f9d578273ffffffffffffffffffffffffffffffffffffffff16848281518110611f6357611f6261448d565b5b602002602001015173ffffffffffffffffffffffffffffffffffffffff1603611f90576001915050611fa3565b8080600101915050611f30565b50600090505b92915050565b611fbb81600001518260400151612304565b611fcd81602001518260600151612304565b611fd682612ffb565b5050565b611fec81600001518260200151612304565b611ff98160400151612ffb565b6120068160600151612ffb565b50565b6004600083815260200190815260200160002060006120289190613216565b60005b8160000151518110156120f35760046000848152602001908152602001600020826000015182815181106120625761206161448d565b5b6020026020010151908060018154018082558091505060019003906000526020600020906002020160009091909190915060008201518160000160006101000a81548173ffffffffffffffffffffffffffffffffffffffff021916908373ffffffffffffffffffffffffffffffffffffffff160217905550602082015181600101555050808060010191505061202b565b505050565b60008060046000858152602001908152602001600020805480602002602001604051908101604052809291908181526020016000905b828210156121c057838290600052602060002090600202016040518060400160405290816000820160009054906101000a900473ffffffffffffffffffffffffffffffffffffffff1673ffffffffffffffffffffffffffffffffffffffff1673ffffffffffffffffffffffffffffffffffffffff1681526020016001820154815250508152602001906001019061212e565b50505050905060005b8151811015612258578373ffffffffffffffffffffffffffffffffffffffff168282815181106121fc576121fb61448d565b5b60200260200101516000015173ffffffffffffffffffffffffffffffffffffffff160361224b578181815181106122365761223561448d565b5b6020026020010151602001519250505061225f565b80806001019150506121c9565b5060009150505b92915050565b6122ff83838360405160240161227d9392919061533b565b6040516020818303038152906040527fca47c4eb000000000000000000000000000000000000000000000000000000007bffffffffffffffffffffffffffffffffffffffffffffffffffffffff19166020820180517bffffffffffffffffffffffffffffffffffffffffffffffffffffffff8381831617835250505050613073565b505050565b61230d816125ab565b60006005600060065481526020019081526020016000209050600654816000018190555082600001518160010190816123469190615379565b5082602001518160020160006101000a81548160ff02191690831515021790555060018160020160016101000a81548160ff0219169083151502179055508060056000600654815260200190815260200160002060008201548160000155600182018160010190816123b89190615461565b506002820160009054906101000a900460ff168160020160006101000a81548160ff0219169083151502179055506002820160019054906101000a900460ff168160020160016101000a81548160ff02191690831515021790555090505060046000600654815260200190815260200160002060006124379190613216565b60005b82518110156124fc5760046000600654815260200190815260200160002083828151811061246b5761246a61448d565b5b6020026020010151908060018154018082558091505060019003906000526020600020906002020160009091909190915060008201518160000160006101000a81548173ffffffffffffffffffffffffffffffffffffffff021916908373ffffffffffffffffffffffffffffffffffffffff160217905550602082015181600101555050808060010191505061243a565b507f6550f62ca2c83cbdb0123e0b740a3dd947a71c714ac0daab7a6f43d3dd08becb600654600067ffffffffffffffff81111561253c5761253b613ba2565b5b60405190808252806020026020018201604052801561257557816020015b61256261323a565b81526020019060019003908161255a5790505b508460405161258693929190615549565b60405180910390a1600660008154809291906125a19061558e565b9190505550505050565b60008151116125ef576040517f08c379a00000000000000000000000000000000000000000000000000000000081526004016125e690615622565b60405180910390fd5b60005b81518110156126f65760008282815181106126105761260f61448d565b5b6020026020010151602001511161265c576040517f08c379a0000000000000000000000000000000000000000000000000000000008152600401612653906156b4565b60405180910390fd5b600073ffffffffffffffffffffffffffffffffffffffff168282815181106126875761268661448d565b5b60200260200101516000015173ffffffffffffffffffffffffffffffffffffffff16036126e9576040517f08c379a00000000000000000000000000000000000000000000000000000000081526004016126e090615720565b60405180910390fd5b80806001019150506125f2565b506000815167ffffffffffffffff81111561271457612713613ba2565b5b6040519080825280602002602001820160405280156127425781602001602082028036833780820191505090505b50905060005b82518110156127ca578281815181106127645761276361448d565b5b6020026020010151600001518282815181106127835761278261448d565b5b602002602001019073ffffffffffffffffffffffffffffffffffffffff16908173ffffffffffffffffffffffffffffffffffffffff16815250508080600101915050612748565b506127d48161308d565b612813576040517f08c379a000000000000000000000000000000000000000000000000000000000815260040161280a9061578c565b60405180910390fd5b60005b8251811015612b62576000600960008584815181106128385761283761448d565b5b60200260200101516000015173ffffffffffffffffffffffffffffffffffffffff1673ffffffffffffffffffffffffffffffffffffffff1681526020019081526020016000208054612889906143f0565b9050116128cb576040517f08c379a00000000000000000000000000000000000000000000000000000000081526004016128c2906157f8565b60405180910390fd5b60008054906101000a900473ffffffffffffffffffffffffffffffffffffffff1673ffffffffffffffffffffffffffffffffffffffff1663bb9c6c3e6009600086858151811061291e5761291d61448d565b5b60200260200101516000015173ffffffffffffffffffffffffffffffffffffffff1673ffffffffffffffffffffffffffffffffffffffff1681526020019081526020016000206040518263ffffffff1660e01b8152600401612980919061589c565b602060405180830381865afa15801561299d573d6000803e3d6000fd5b505050506040513d601f19601f820116820180604052508101906129c191906158be565b612a00576040517f08c379a00000000000000000000000000000000000000000000000000000000081526004016129f790615937565b60405180910390fd5b60008054906101000a900473ffffffffffffffffffffffffffffffffffffffff1673ffffffffffffffffffffffffffffffffffffffff1663bde1eee760096000868581518110612a5357612a5261448d565b5b60200260200101516000015173ffffffffffffffffffffffffffffffffffffffff1673ffffffffffffffffffffffffffffffffffffffff168152602001908152602001600020858481518110612aac57612aab61448d565b5b6020026020010151600001516040518363ffffffff1660e01b8152600401612ad5929190615957565b602060405180830381865afa158015612af2573d6000803e3d6000fd5b505050506040513d601f19601f82011682018060405250810190612b1691906158be565b612b55576040517f08c379a0000000000000000000000000000000000000000000000000000000008152600401612b4c906159d3565b60405180910390fd5b8080600101915050612816565b505050565b612b718433610f08565b612bb0576040517f08c379a0000000000000000000000000000000000000000000000000000000008152600401612ba790614b42565b60405180910390fd5b60006007600060085481526020019081526020016000209050848160000181905550838160040160006101000a81548160ff02191690836002811115612bf957612bf8613427565b5b021790555081816005019081612c0f9190615a4e565b5082816001019080519060200190612c2892919061326a565b5060008160040160016101000a81548160ff0219169083151502179055507ffcf3b1aa65a464cef2889608f99e8b8c0f680a4be6c2acb9d961c536a5a9294b85600854604051612c79929190614a61565b60405180910390a160086000815480929190612c949061558e565b91905055505050505050565b606060008351905060005b8351811015612cfc57612cdc848281518110612cca57612cc961448d565b5b60200260200101516000015186611397565b612cef578180612ceb9061558e565b9250505b8080600101915050612cab565b5060008167ffffffffffffffff811115612d1957612d18613ba2565b5b604051908082528060200260200182016040528015612d475781602001602082028036833780820191505090505b50905060005b8551811015612dcf57858181518110612d6957612d6861448d565b5b602002602001015160000151828281518110612d8857612d8761448d565b5b602002602001019073ffffffffffffffffffffffffffffffffffffffff16908173ffffffffffffffffffffffffffffffffffffffff16815250508080600101915050612d4d565b5060008551905060005b8551811015612e9657612e0a868281518110612df857612df761448d565b5b60200260200101516000015188611397565b612e8957858181518110612e2157612e2061448d565b5b602002602001015160000151838381518110612e4057612e3f61448d565b5b602002602001019073ffffffffffffffffffffffffffffffffffffffff16908173ffffffffffffffffffffffffffffffffffffffff16815250508180612e859061558e565b9250505b8080600101915050612dd9565b5081935050505092915050565b6060600060018351612eb59190615b20565b67ffffffffffffffff811115612ece57612ecd613ba2565b5b604051908082528060200260200182016040528015612efc5781602001602082028036833780820191505090505b50905060005b8351811015612f8057838181518110612f1e57612f1d61448d565b5b6020026020010151828281518110612f3957612f3861448d565b5b602002602001019073ffffffffffffffffffffffffffffffffffffffff16908173ffffffffffffffffffffffffffffffffffffffff16815250508080600101915050612f02565b50600360009054906101000a900473ffffffffffffffffffffffffffffffffffffffff1681845181518110612fb857612fb761448d565b5b602002602001019073ffffffffffffffffffffffffffffffffffffffff16908173ffffffffffffffffffffffffffffffffffffffff168152505080915050919050565b6005600082815260200190815260200160002060008082016000905560018201600061302791906132f4565b6002820160006101000a81549060ff02191690556002820160016101000a81549060ff021916905550506004600082815260200190815260200160002060006130709190613216565b50565b61308a81613082613151613172565b63ffffffff16565b50565b600080600090505b82518110156131465760006001826130ad9190615b20565b90505b8351811015613138578381815181106130cc576130cb61448d565b5b602002602001015173ffffffffffffffffffffffffffffffffffffffff168483815181106130fd576130fc61448d565b5b602002602001015173ffffffffffffffffffffffffffffffffffffffff160361312b5760009250505061314c565b80806001019150506130b0565b508080600101915050613095565b50600190505b919050565b60006a636f6e736f6c652e6c6f679050600080835160208501845afa505050565b613334819050919050565b6040518060e0016040528060008152602001600081526020016060815260200160608152602001600060028111156131b8576131b7613427565b5b8152602001600015158152602001606081525090565b6040518060400160405280606081526020016000151581525090565b604051806080016040528060008152602001606081526020016000151581526020016000151581525090565b5080546000825560020290600052602060002090810190613237919061333e565b50565b6040518060400160405280600073ffffffffffffffffffffffffffffffffffffffff168152602001600081525090565b8280548282559060005260206000209081019282156132e3579160200282015b828111156132e25782518260006101000a81548173ffffffffffffffffffffffffffffffffffffffff021916908373ffffffffffffffffffffffffffffffffffffffff1602179055509160200191906001019061328a565b5b5090506132f09190613384565b5090565b508054613300906143f0565b6000825580601f106133125750613331565b601f0160209004906000526020600020908101906133309190613384565b5b50565b61333c615b54565b565b5b8082111561338057600080820160006101000a81549073ffffffffffffffffffffffffffffffffffffffff021916905560018201600090555060020161333f565b5090565b5b8082111561339d576000816000905550600101613385565b5090565b6000604051905090565b600080fd5b600080fd5b6000819050919050565b6133c8816133b5565b81146133d357600080fd5b50565b6000813590506133e5816133bf565b92915050565b600060208284031215613401576134006133ab565b5b600061340f848285016133d6565b91505092915050565b613421816133b5565b82525050565b7f4e487b7100000000000000000000000000000000000000000000000000000000600052602160045260246000fd5b6003811061346757613466613427565b5b50565b600081905061347882613456565b919050565b60006134888261346a565b9050919050565b6134988161347d565b82525050565b60008115159050919050565b6134b38161349e565b82525050565b600081519050919050565b600082825260208201905092915050565b60005b838110156134f35780820151818401526020810190506134d8565b60008484015250505050565b6000601f19601f8301169050919050565b600061351b826134b9565b61352581856134c4565b93506135358185602086016134d5565b61353e816134ff565b840191505092915050565b600060808201905061355e6000830187613418565b61356b602083018661348f565b61357860408301856134aa565b818103606083015261358a8184613510565b905095945050505050565b60006020820190506135aa6000830184613418565b92915050565b600073ffffffffffffffffffffffffffffffffffffffff82169050919050565b60006135db826135b0565b9050919050565b6135eb816135d0565b81146135f657600080fd5b50565b600081359050613608816135e2565b92915050565b60008060408385031215613625576136246133ab565b5b6000613633858286016133d6565b9250506020613644858286016135f9565b9150509250929050565b600060208201905061366360008301846134aa565b92915050565b60006020828403121561367f5761367e6133ab565b5b600061368d848285016135f9565b91505092915050565b600081519050919050565b600082825260208201905092915050565b60006136bd82613696565b6136c781856136a1565b93506136d78185602086016134d5565b6136e0816134ff565b840191505092915050565b6000602082019050818103600083015261370581846136b2565b905092915050565b600080600060608486031215613726576137256133ab565b5b6000613734868287016135f9565b9350506020613745868287016133d6565b9250506040613756868287016133d6565b9150509250925092565b6000819050919050565b600061378561378061377b846135b0565b613760565b6135b0565b9050919050565b60006137978261376a565b9050919050565b60006137a98261378c565b9050919050565b6137b98161379e565b82525050565b60006020820190506137d460008301846137b0565b92915050565b600081519050919050565b600082825260208201905092915050565b6000819050602082019050919050565b61380f816133b5565b82525050565b600081519050919050565b600082825260208201905092915050565b6000819050602082019050919050565b61384a816135d0565b82525050565b600061385c8383613841565b60208301905092915050565b6000602082019050919050565b600061388082613815565b61388a8185613820565b935061389583613831565b8060005b838110156138c65781516138ad8882613850565b97506138b883613868565b925050600181019050613899565b5085935050505092915050565b6138dc8161347d565b82525050565b6138eb8161349e565b82525050565b600082825260208201905092915050565b600061390d826134b9565b61391781856138f1565b93506139278185602086016134d5565b613930816134ff565b840191505092915050565b600060e0830160008301516139536000860182613806565b5060208301516139666020860182613806565b506040830151848203604086015261397e8282613875565b915050606083015184820360608601526139988282613875565b91505060808301516139ad60808601826138d3565b5060a08301516139c060a08601826138e2565b5060c083015184820360c08601526139d88282613902565b9150508091505092915050565b60006139f1838361393b565b905092915050565b6000602082019050919050565b6000613a11826137da565b613a1b81856137e5565b935083602082028501613a2d856137f6565b8060005b85811015613a695784840389528151613a4a85826139e5565b9450613a55836139f9565b925060208a01995050600181019050613a31565b50829750879550505050505092915050565b60006020820190508181036000830152613a958184613a06565b905092915050565b600081519050919050565b600082825260208201905092915050565b6000819050602082019050919050565b604082016000820151613adf6000850182613841565b506020820151613af26020850182613806565b50505050565b6000613b048383613ac9565b60408301905092915050565b6000602082019050919050565b6000613b2882613a9d565b613b328185613aa8565b9350613b3d83613ab9565b8060005b83811015613b6e578151613b558882613af8565b9750613b6083613b10565b925050600181019050613b41565b5085935050505092915050565b60006020820190508181036000830152613b958184613b1d565b905092915050565b600080fd5b7f4e487b7100000000000000000000000000000000000000000000000000000000600052604160045260246000fd5b613bda826134ff565b810181811067ffffffffffffffff82111715613bf957613bf8613ba2565b5b80604052505050565b6000613c0c6133a1565b9050613c188282613bd1565b919050565b600067ffffffffffffffff821115613c3857613c37613ba2565b5b602082029050602081019050919050565b600080fd5b600080fd5b600080fd5b600060408284031215613c6e57613c6d613c4e565b5b613c786040613c02565b90506000613c88848285016135f9565b6000830152506020613c9c848285016133d6565b60208301525092915050565b6000613cbb613cb684613c1d565b613c02565b90508083825260208201905060408402830185811115613cde57613cdd613c49565b5b835b81811015613d075780613cf38882613c58565b845260208401935050604081019050613ce0565b5050509392505050565b600082601f830112613d2657613d25613b9d565b5b8135613d36848260208601613ca8565b91505092915050565b60008060408385031215613d5657613d556133ab565b5b6000613d64858286016135f9565b925050602083013567ffffffffffffffff811115613d8557613d846133b0565b5b613d9185828601613d11565b9150509250929050565b600080fd5b60008083601f840112613db657613db5613b9d565b5b8235905067ffffffffffffffff811115613dd357613dd2613d9b565b5b602083019150836040820283011115613def57613dee613c49565b5b9250929050565b60008083601f840112613e0c57613e0b613b9d565b5b8235905067ffffffffffffffff811115613e2957613e28613d9b565b5b602083019150836001820283011115613e4557613e44613c49565b5b9250929050565b613e558161349e565b8114613e6057600080fd5b50565b600081359050613e7281613e4c565b92915050565b600080600080600060608688031215613e9457613e936133ab565b5b600086013567ffffffffffffffff811115613eb257613eb16133b0565b5b613ebe88828901613da0565b9550955050602086013567ffffffffffffffff811115613ee157613ee06133b0565b5b613eed88828901613df6565b93509350506040613f0088828901613e63565b9150509295509295909350565b60008060408385031215613f2457613f236133ab565b5b6000613f32858286016133d6565b925050602083013567ffffffffffffffff811115613f5357613f526133b0565b5b613f5f85828601613d11565b9150509250929050565b600082825260208201905092915050565b6000613f8582613815565b613f8f8185613f69565b9350613f9a83613831565b8060005b83811015613fcb578151613fb28882613850565b9750613fbd83613868565b925050600181019050613f9e565b5085935050505092915050565b60006020820190508181036000830152613ff28184613f7a565b905092915050565b600080fd5b600067ffffffffffffffff82111561401a57614019613ba2565b5b614023826134ff565b9050602081019050919050565b82818337600083830152505050565b600061405261404d84613fff565b613c02565b90508281526020810184848401111561406e5761406d613ffa565b5b614079848285614030565b509392505050565b600082601f83011261409657614095613b9d565b5b81356140a684826020860161403f565b91505092915050565b6000604082840312156140c5576140c4613c4e565b5b6140cf6040613c02565b9050600082013567ffffffffffffffff8111156140ef576140ee613c53565b5b6140fb84828501614081565b600083015250602061410f84828501613e63565b60208301525092915050565b60008060008060808587031215614135576141346133ab565b5b6000614143878288016133d6565b9450506020614154878288016133d6565b935050604085013567ffffffffffffffff811115614175576141746133b0565b5b614181878288016140af565b925050606085013567ffffffffffffffff8111156141a2576141a16133b0565b5b6141ae87828801613d11565b91505092959194509250565b600080600080600060a086880312156141d6576141d56133ab565b5b60006141e4888289016133d6565b955050602086013567ffffffffffffffff811115614205576142046133b0565b5b614211888289016140af565b945050604086013567ffffffffffffffff811115614232576142316133b0565b5b61423e888289016140af565b935050606086013567ffffffffffffffff81111561425f5761425e6133b0565b5b61426b88828901613d11565b925050608086013567ffffffffffffffff81111561428c5761428b6133b0565b5b61429888828901613d11565b9150509295509295909350565b600082825260208201905092915050565b60006142c182613696565b6142cb81856142a5565b93506142db8185602086016134d5565b6142e4816134ff565b840191505092915050565b60006080830160008301516143076000860182613806565b506020830151848203602086015261431f82826142b6565b915050604083015161433460408601826138e2565b50606083015161434760608601826138e2565b508091505092915050565b6000602082019050818103600083015261436c81846142ef565b905092915050565b6000806020838503121561438b5761438a6133ab565b5b600083013567ffffffffffffffff8111156143a9576143a86133b0565b5b6143b585828601613df6565b92509250509250929050565b7f4e487b7100000000000000000000000000000000000000000000000000000000600052602260045260246000fd5b6000600282049050600182168061440857607f821691505b60208210810361441b5761441a6143c1565b5b50919050565b7f50726f706f73616c20616c726561647920657865637574656400000000000000600082015250565b60006144576019836136a1565b915061446282614421565b602082019050919050565b600060208201905081810360008301526144868161444a565b9050919050565b7f4e487b7100000000000000000000000000000000000000000000000000000000600052603260045260246000fd5b7f4e6f7420616c6c206f776e657273206861766520617070726f76656400000000600082015250565b60006144f2601c836136a1565b91506144fd826144bc565b602082019050919050565b60006020820190508181036000830152614521816144e5565b9050919050565b600061453b61453684613fff565b613c02565b90508281526020810184848401111561455757614556613ffa565b5b6145628482856134d5565b509392505050565b600082601f83011261457f5761457e613b9d565b5b815161458f848260208601614528565b91505092915050565b6000815190506145a781613e4c565b92915050565b6000604082840312156145c3576145c2613c4e565b5b6145cd6040613c02565b9050600082015167ffffffffffffffff8111156145ed576145ec613c53565b5b6145f98482850161456a565b600083015250602061460d84828501614598565b60208301525092915050565b600081519050614628816135e2565b92915050565b60008151905061463d816133bf565b92915050565b60006040828403121561465957614658613c4e565b5b6146636040613c02565b9050600061467384828501614619565b60008301525060206146878482850161462e565b60208301525092915050565b60006146a66146a184613c1d565b613c02565b905080838252602082019050604084028301858111156146c9576146c8613c49565b5b835b818110156146f257806146de8882614643565b8452602084019350506040810190506146cb565b5050509392505050565b600082601f83011261471157614710613b9d565b5b8151614721848260208601614693565b91505092915050565b6000608082840312156147405761473f613c4e565b5b61474a6080613c02565b9050600082015167ffffffffffffffff81111561476a57614769613c53565b5b614776848285016145ad565b600083015250602082015167ffffffffffffffff81111561479a57614799613c53565b5b6147a6848285016145ad565b602083015250604082015167ffffffffffffffff8111156147ca576147c9613c53565b5b6147d6848285016146fc565b604083015250606082015167ffffffffffffffff8111156147fa576147f9613c53565b5b614806848285016146fc565b60608301525092915050565b600060208284031215614828576148276133ab565b5b600082015167ffffffffffffffff811115614846576148456133b0565b5b6148528482850161472a565b91505092915050565b60006080828403121561487157614870613c4e565b5b61487b6080613c02565b9050600082015167ffffffffffffffff81111561489b5761489a613c53565b5b6148a7848285016145ad565b600083015250602082015167ffffffffffffffff8111156148cb576148ca613c53565b5b6148d7848285016146fc565b60208301525060406148eb8482850161462e565b60408301525060606148ff8482850161462e565b60608301525092915050565b600060208284031215614921576149206133ab565b5b600082015167ffffffffffffffff81111561493f5761493e6133b0565b5b61494b8482850161485b565b91505092915050565b60006020828403121561496a57614969613c4e565b5b6149746020613c02565b9050600082015167ffffffffffffffff81111561499457614993613c53565b5b6149a0848285016146fc565b60008301525092915050565b6000602082840312156149c2576149c16133ab565b5b600082015167ffffffffffffffff8111156149e0576149df6133b0565b5b6149ec84828501614954565b91505092915050565b7f496e76616c69642070726f706f73616c20747970650000000000000000000000600082015250565b6000614a2b6015836136a1565b9150614a36826149f5565b602082019050919050565b60006020820190508181036000830152614a5a81614a1e565b9050919050565b6000604082019050614a766000830185613418565b614a836020830184613418565b9392505050565b7f5472616e7366657220666f72206e6f6e6578697374656e7420746f6b656e0000600082015250565b6000614ac0601e836136a1565b9150614acb82614a8a565b602082019050919050565b60006020820190508181036000830152614aef81614ab3565b9050919050565b7f4e6f7420616e206f776e65720000000000000000000000000000000000000000600082015250565b6000614b2c600c836136a1565b9150614b3782614af6565b602082019050919050565b60006020820190508181036000830152614b5b81614b1f565b9050919050565b7f4e6f7420656e6f75676820736861726573000000000000000000000000000000600082015250565b6000614b986011836136a1565b9150614ba382614b62565b602082019050919050565b60006020820190508181036000830152614bc781614b8b565b9050919050565b7f506c6f74206973206e6f7420616c6c6f77656420746f20626520696e6469766960008201527f6475616c6c79207472616e736665727265640000000000000000000000000000602082015250565b6000614c2a6032836136a1565b9150614c3582614bce565b604082019050919050565b60006020820190508181036000830152614c5981614c1d565b9050919050565b7f4e487b7100000000000000000000000000000000000000000000000000000000600052601160045260246000fd5b6000614c9a826133b5565b9150614ca5836133b5565b9250828203905081811115614cbd57614cbc614c60565b5b92915050565b7f4f6e6c7920746865206d616e6461746f7279207061727469636970616e74206360008201527f616e206d696e7420706c6f747300000000000000000000000000000000000000602082015250565b6000614d1f602d836136a1565b9150614d2a82614cc3565b604082019050919050565b60006020820190508181036000830152614d4e81614d12565b9050919050565b600060408284031215614d6b57614d6a6133ab565b5b6000614d7984828501613c58565b91505092915050565b600082825260208201905092915050565b6000614d9e82613a9d565b614da88185614d82565b9350614db383613ab9565b8060005b83811015614de4578151614dcb8882613af8565b9750614dd683613b10565b925050600181019050614db7565b5085935050505092915050565b60006020830160008301518482036000860152614e0e8282614d93565b9150508091505092915050565b60006020820190508181036000830152614e358184614df1565b905092915050565b7f43616e206e6f7420617070726f76650000000000000000000000000000000000600082015250565b6000614e73600f836136a1565b9150614e7e82614e3d565b602082019050919050565b60006020820190508181036000830152614ea281614e66565b9050919050565b7f416c726561647920617070726f76656400000000000000000000000000000000600082015250565b6000614edf6010836136a1565b9150614eea82614ea9565b602082019050919050565b60006020820190508181036000830152614f0e81614ed2565b9050919050565b614f1e816135d0565b82525050565b6000606082019050614f396000830186613418565b614f466020830185613418565b614f536040830184614f15565b949350505050565b60006040830160008301518482036000860152614f7882826142b6565b9150506020830151614f8d60208601826138e2565b508091505092915050565b60006080830160008301518482036000860152614fb58282614f5b565b91505060208301518482036020860152614fcf8282614d93565b9150506040830151614fe46040860182613806565b506060830151614ff76060860182613806565b508091505092915050565b6000602082019050818103600083015261501c8184614f98565b905092915050565b600060808301600083015184820360008601526150418282614f5b565b9150506020830151848203602086015261505b8282614f5b565b915050604083015184820360408601526150758282614d93565b9150506060830151848203606086015261508f8282614d93565b9150508091505092915050565b600060208201905081810360008301526150b68184615024565b905092915050565b600082905092915050565b60008190508160005260206000209050919050565b60006020601f8301049050919050565b600082821b905092915050565b60006008830261512b7fffffffffffffffffffffffffffffffffffffffffffffffffffffffffffffffff826150ee565b61513586836150ee565b95508019841693508086168417925050509392505050565b600061516861516361515e846133b5565b613760565b6133b5565b9050919050565b6000819050919050565b6151828361514d565b61519661518e8261516f565b8484546150fb565b825550505050565b600090565b6151ab61519e565b6151b6818484615179565b505050565b5b818110156151da576151cf6000826151a3565b6001810190506151bc565b5050565b601f82111561521f576151f0816150c9565b6151f9846150de565b81016020851015615208578190505b61521c615214856150de565b8301826151bb565b50505b505050565b600082821c905092915050565b600061524260001984600802615224565b1980831691505092915050565b600061525b8383615231565b9150826002028217905092915050565b61527583836150be565b67ffffffffffffffff81111561528e5761528d613ba2565b5b61529882546143f0565b6152a38282856151de565b6000601f8311600181146152d257600084156152c0578287013590505b6152ca858261524f565b865550615332565b601f1984166152e0866150c9565b60005b82811015615308578489013582556001820191506020850194506020810190506152e3565b868310156153255784890135615321601f891682615231565b8355505b6001600288020188555050505b50505050505050565b6000606082019050818103600083015261535581866136b2565b90506153646020830185613418565b6153716040830184613418565b949350505050565b61538282613696565b67ffffffffffffffff81111561539b5761539a613ba2565b5b6153a582546143f0565b6153b08282856151de565b600060209050601f8311600181146153e357600084156153d1578287015190505b6153db858261524f565b865550615443565b601f1984166153f1866150c9565b60005b82811015615419578489015182556001820191506020850194506020810190506153f4565b868310156154365784890151615432601f891682615231565b8355505b6001600288020188555050505b505050505050565b60008154905061545a816143f0565b9050919050565b81810361546f575050615547565b6154788261544b565b67ffffffffffffffff81111561549157615490613ba2565b5b61549b82546143f0565b6154a68282856151de565b6000601f8311600181146154d557600084156154c3578287015490505b6154cd858261524f565b865550615540565b601f1984166154e3876150c9565b96506154ee866150c9565b60005b82811015615516578489015482556001820191506001850194506020810190506154f1565b86831015615533578489015461552f601f891682615231565b8355505b6001600288020188555050505b5050505050505b565b600060608201905061555e6000830186613418565b81810360208301526155708185613b1d565b905081810360408301526155848184613b1d565b9050949350505050565b6000615599826133b5565b91507fffffffffffffffffffffffffffffffffffffffffffffffffffffffffffffffff82036155cb576155ca614c60565b5b600182019050919050565b7f4f776e657273206d757374206265206e6f6e2d656d7074790000000000000000600082015250565b600061560c6018836136a1565b9150615617826155d6565b602082019050919050565b6000602082019050818103600083015261563b816155ff565b9050919050565b7f4f776e657273686970207368617265206d75737420626520677265617465722060008201527f7468616e20300000000000000000000000000000000000000000000000000000602082015250565b600061569e6026836136a1565b91506156a982615642565b604082019050919050565b600060208201905081810360008301526156cd81615691565b9050919050565b7f4f776e65722061646472657373206d757374206265206e6f6e2d7a65726f0000600082015250565b600061570a601e836136a1565b9150615715826156d4565b602082019050919050565b60006020820190508181036000830152615739816156fd565b9050919050565b7f4f776e657273206d75737420626520756e697175650000000000000000000000600082015250565b60006157766015836136a1565b915061578182615740565b602082019050919050565b600060208201905081810360008301526157a581615769565b9050919050565b7f444944206d7573742062652070726f7669646564000000000000000000000000600082015250565b60006157e26014836136a1565b91506157ed826157ac565b602082019050919050565b60006020820190508181036000830152615811816157d5565b9050919050565b60008154615825816143f0565b61582f81866136a1565b9450600182166000811461584a576001811461586057615893565b60ff198316865281151560200286019350615893565b615869856150c9565b60005b8381101561588b5781548189015260018201915060208101905061586c565b808801955050505b50505092915050565b600060208201905081810360008301526158b68184615818565b905092915050565b6000602082840312156158d4576158d36133ab565b5b60006158e284828501614598565b91505092915050565b7f496e76616c696420444944000000000000000000000000000000000000000000600082015250565b6000615921600b836136a1565b915061592c826158eb565b602082019050919050565b6000602082019050818103600083015261595081615914565b9050919050565b600060408201905081810360008301526159718185615818565b90506159806020830184614f15565b9392505050565b7f444944206f776e6572206d69736d617463680000000000000000000000000000600082015250565b60006159bd6012836136a1565b91506159c882615987565b602082019050919050565b600060208201905081810360008301526159ec816159b0565b9050919050565b60008190508160005260206000209050919050565b601f821115615a4957615a1a816159f3565b615a23846150de565b81016020851015615a32578190505b615a46615a3e856150de565b8301826151bb565b50505b505050565b615a57826134b9565b67ffffffffffffffff811115615a7057615a6f613ba2565b5b615a7a82546143f0565b615a85828285615a08565b600060209050601f831160018114615ab85760008415615aa6578287015190505b615ab0858261524f565b865550615b18565b601f198416615ac6866159f3565b60005b82811015615aee57848901518255600182019150602085019450602081019050615ac9565b86831015615b0b5784890151615b07601f891682615231565b8355505b6001600288020188555050505b505050505050565b6000615b2b826133b5565b9150615b36836133b5565b9250828201905080821115615b4e57615b4d614c60565b5b92915050565b7f4e487b7100000000000000000000000000000000000000000000000000000000600052605160045260246000fdfea2646970667358221220fdd516e78069f0c049b0b86e0e34e941541c38234f06ac338cd7b63cb561baff64736f6c634300081b0033",
  "linkReferences": {},
  "deployedLinkReferences": {}
}